{
  "_format": "hh-sol-artifact-1",
  "contractName": "VolcanoToken",
  "sourceName": "contracts/VolcanoToken.sol",
  "abi": [
    {
      "inputs": [],
      "stateMutability": "nonpayable",
      "type": "constructor"
    },
    {
      "anonymous": false,
      "inputs": [
        {
          "indexed": true,
          "internalType": "address",
          "name": "owner",
          "type": "address"
        },
        {
          "indexed": true,
          "internalType": "address",
          "name": "approved",
          "type": "address"
        },
        {
          "indexed": true,
          "internalType": "uint256",
          "name": "tokenId",
          "type": "uint256"
        }
      ],
      "name": "Approval",
      "type": "event"
    },
    {
      "anonymous": false,
      "inputs": [
        {
          "indexed": true,
          "internalType": "address",
          "name": "owner",
          "type": "address"
        },
        {
          "indexed": true,
          "internalType": "address",
          "name": "operator",
          "type": "address"
        },
        {
          "indexed": false,
          "internalType": "bool",
          "name": "approved",
          "type": "bool"
        }
      ],
      "name": "ApprovalForAll",
      "type": "event"
    },
    {
      "anonymous": false,
      "inputs": [
        {
          "indexed": true,
          "internalType": "address",
          "name": "previousOwner",
          "type": "address"
        },
        {
          "indexed": true,
          "internalType": "address",
          "name": "newOwner",
          "type": "address"
        }
      ],
      "name": "OwnershipTransferred",
      "type": "event"
    },
    {
      "anonymous": false,
      "inputs": [
        {
          "indexed": true,
          "internalType": "address",
          "name": "from",
          "type": "address"
        },
        {
          "indexed": true,
          "internalType": "address",
          "name": "to",
          "type": "address"
        },
        {
          "indexed": true,
          "internalType": "uint256",
          "name": "tokenId",
          "type": "uint256"
        }
      ],
      "name": "Transfer",
      "type": "event"
    },
    {
      "inputs": [
        {
          "internalType": "address",
          "name": "",
          "type": "address"
        },
        {
          "internalType": "uint256",
          "name": "",
          "type": "uint256"
        }
      ],
      "name": "_ownerMapping",
      "outputs": [
        {
          "internalType": "uint256",
          "name": "timestamp",
          "type": "uint256"
        },
        {
          "internalType": "uint256",
          "name": "tokenId",
          "type": "uint256"
        },
        {
          "internalType": "string",
          "name": "tokenUri",
          "type": "string"
        }
      ],
      "stateMutability": "view",
      "type": "function"
    },
    {
      "inputs": [
        {
          "internalType": "address",
          "name": "to",
          "type": "address"
        },
        {
          "internalType": "uint256",
          "name": "tokenId",
          "type": "uint256"
        }
      ],
      "name": "approve",
      "outputs": [],
      "stateMutability": "nonpayable",
      "type": "function"
    },
    {
      "inputs": [
        {
          "internalType": "address",
          "name": "owner",
          "type": "address"
        }
      ],
      "name": "balanceOf",
      "outputs": [
        {
          "internalType": "uint256",
          "name": "",
          "type": "uint256"
        }
      ],
      "stateMutability": "view",
      "type": "function"
    },
    {
      "inputs": [
        {
          "internalType": "uint256",
          "name": "tokenId",
          "type": "uint256"
        }
      ],
      "name": "burn",
      "outputs": [],
      "stateMutability": "nonpayable",
      "type": "function"
    },
    {
      "inputs": [
        {
          "internalType": "uint256",
          "name": "tokenId",
          "type": "uint256"
        }
      ],
      "name": "getApproved",
      "outputs": [
        {
          "internalType": "address",
          "name": "",
          "type": "address"
        }
      ],
      "stateMutability": "view",
      "type": "function"
    },
    {
      "inputs": [
        {
          "internalType": "address",
          "name": "ownerAddress",
          "type": "address"
        }
      ],
      "name": "getMeta",
      "outputs": [
        {
          "components": [
            {
              "internalType": "uint256",
              "name": "timestamp",
              "type": "uint256"
            },
            {
              "internalType": "uint256",
              "name": "tokenId",
              "type": "uint256"
            },
            {
              "internalType": "string",
              "name": "tokenUri",
              "type": "string"
            }
          ],
          "internalType": "struct VolcanoToken.Metadata[]",
          "name": "",
          "type": "tuple[]"
        }
      ],
      "stateMutability": "view",
      "type": "function"
    },
    {
      "inputs": [
        {
          "internalType": "address",
          "name": "owner",
          "type": "address"
        },
        {
          "internalType": "address",
          "name": "operator",
          "type": "address"
        }
      ],
      "name": "isApprovedForAll",
      "outputs": [
        {
          "internalType": "bool",
          "name": "",
          "type": "bool"
        }
      ],
      "stateMutability": "view",
      "type": "function"
    },
    {
      "inputs": [],
      "name": "mint",
      "outputs": [],
      "stateMutability": "nonpayable",
      "type": "function"
    },
    {
      "inputs": [],
      "name": "name",
      "outputs": [
        {
          "internalType": "string",
          "name": "",
          "type": "string"
        }
      ],
      "stateMutability": "view",
      "type": "function"
    },
    {
      "inputs": [],
      "name": "owner",
      "outputs": [
        {
          "internalType": "address",
          "name": "",
          "type": "address"
        }
      ],
      "stateMutability": "view",
      "type": "function"
    },
    {
      "inputs": [
        {
          "internalType": "uint256",
          "name": "tokenId",
          "type": "uint256"
        }
      ],
      "name": "ownerOf",
      "outputs": [
        {
          "internalType": "address",
          "name": "",
          "type": "address"
        }
      ],
      "stateMutability": "view",
      "type": "function"
    },
    {
      "inputs": [],
      "name": "renounceOwnership",
      "outputs": [],
      "stateMutability": "nonpayable",
      "type": "function"
    },
    {
      "inputs": [
        {
          "internalType": "address",
          "name": "from",
          "type": "address"
        },
        {
          "internalType": "address",
          "name": "to",
          "type": "address"
        },
        {
          "internalType": "uint256",
          "name": "tokenId",
          "type": "uint256"
        }
      ],
      "name": "safeTransferFrom",
      "outputs": [],
      "stateMutability": "nonpayable",
      "type": "function"
    },
    {
      "inputs": [
        {
          "internalType": "address",
          "name": "from",
          "type": "address"
        },
        {
          "internalType": "address",
          "name": "to",
          "type": "address"
        },
        {
          "internalType": "uint256",
          "name": "tokenId",
          "type": "uint256"
        },
        {
          "internalType": "bytes",
          "name": "_data",
          "type": "bytes"
        }
      ],
      "name": "safeTransferFrom",
      "outputs": [],
      "stateMutability": "nonpayable",
      "type": "function"
    },
    {
      "inputs": [
        {
          "internalType": "address",
          "name": "operator",
          "type": "address"
        },
        {
          "internalType": "bool",
          "name": "approved",
          "type": "bool"
        }
      ],
      "name": "setApprovalForAll",
      "outputs": [],
      "stateMutability": "nonpayable",
      "type": "function"
    },
    {
      "inputs": [
        {
          "internalType": "bytes4",
          "name": "interfaceId",
          "type": "bytes4"
        }
      ],
      "name": "supportsInterface",
      "outputs": [
        {
          "internalType": "bool",
          "name": "",
          "type": "bool"
        }
      ],
      "stateMutability": "view",
      "type": "function"
    },
    {
      "inputs": [],
      "name": "symbol",
      "outputs": [
        {
          "internalType": "string",
          "name": "",
          "type": "string"
        }
      ],
      "stateMutability": "view",
      "type": "function"
    },
    {
      "inputs": [
        {
          "internalType": "uint256",
          "name": "tokenId",
          "type": "uint256"
        }
      ],
      "name": "tokenURI",
      "outputs": [
        {
          "internalType": "string",
          "name": "",
          "type": "string"
        }
      ],
      "stateMutability": "view",
      "type": "function"
    },
    {
      "inputs": [
        {
          "internalType": "address",
          "name": "from",
          "type": "address"
        },
        {
          "internalType": "address",
          "name": "to",
          "type": "address"
        },
        {
          "internalType": "uint256",
          "name": "tokenId",
          "type": "uint256"
        }
      ],
      "name": "transferFrom",
      "outputs": [],
      "stateMutability": "nonpayable",
      "type": "function"
    },
    {
      "inputs": [
        {
          "internalType": "address",
          "name": "newOwner",
          "type": "address"
        }
      ],
      "name": "transferOwnership",
      "outputs": [],
      "stateMutability": "nonpayable",
      "type": "function"
    }
  ],
  "bytecode": "0x60806040523480156200001157600080fd5b506040518060400160405280600c81526020017f566f6c63616e6f546f6b656e00000000000000000000000000000000000000008152506040518060400160405280600381526020017f564f4c0000000000000000000000000000000000000000000000000000000000815250816000908051906020019062000096929190620001a6565b508060019080519060200190620000af929190620001a6565b505050620000d2620000c6620000d860201b60201c565b620000e060201b60201c565b620002bb565b600033905090565b6000600660009054906101000a900473ffffffffffffffffffffffffffffffffffffffff16905081600660006101000a81548173ffffffffffffffffffffffffffffffffffffffff021916908373ffffffffffffffffffffffffffffffffffffffff1602179055508173ffffffffffffffffffffffffffffffffffffffff168173ffffffffffffffffffffffffffffffffffffffff167f8be0079c531659141344cd1fd0a4f28419497f9722a3daafe3b4186f6b6457e060405160405180910390a35050565b828054620001b49062000285565b90600052602060002090601f016020900481019282620001d8576000855562000224565b82601f10620001f357805160ff191683800117855562000224565b8280016001018555821562000224579182015b828111156200022357825182559160200191906001019062000206565b5b50905062000233919062000237565b5090565b5b808211156200025257600081600090555060010162000238565b5090565b7f4e487b7100000000000000000000000000000000000000000000000000000000600052602260045260246000fd5b600060028204905060018216806200029e57607f821691505b60208210811415620002b557620002b462000256565b5b50919050565b6137a480620002cb6000396000f3fe608060405234801561001057600080fd5b506004361061012c5760003560e01c806370a08231116100ad578063b88d4fde11610071578063b88d4fde1461031b578063c87b56dd14610337578063e09685e614610367578063e985e9c514610399578063f2fde38b146103c95761012c565b806370a0823114610289578063715018a6146102b95780638da5cb5b146102c357806395d89b41146102e1578063a22cb465146102ff5761012c565b80631249c58b116100f45780631249c58b146101fb57806323b872dd1461020557806342842e0e1461022157806342966c681461023d5780636352211e146102595761012c565b806301ffc9a71461013157806306fdde0314610161578063081812fc1461017f578063095ea7b3146101af5780630f43d7aa146101cb575b600080fd5b61014b6004803603810190610146919061239d565b6103e5565b60405161015891906123e5565b60405180910390f35b6101696104c7565b6040516101769190612499565b60405180910390f35b610199600480360381019061019491906124f1565b610559565b6040516101a6919061255f565b60405180910390f35b6101c960048036038101906101c491906125a6565b6105de565b005b6101e560048036038101906101e091906125e6565b6106f6565b6040516101f2919061277e565b60405180910390f35b61020361083a565b005b61021f600480360381019061021a91906127a0565b610952565b005b61023b600480360381019061023691906127a0565b6109b2565b005b610257600480360381019061025291906124f1565b610ab9565b005b610273600480360381019061026e91906124f1565b610b4c565b604051610280919061255f565b60405180910390f35b6102a3600480360381019061029e91906125e6565b610bfe565b6040516102b09190612802565b60405180910390f35b6102c1610cb6565b005b6102cb610d3e565b6040516102d8919061255f565b60405180910390f35b6102e9610d68565b6040516102f69190612499565b60405180910390f35b61031960048036038101906103149190612849565b610dfa565b005b610335600480360381019061033091906129be565b610f7b565b005b610351600480360381019061034c91906124f1565b610fdd565b60405161035e9190612499565b60405180910390f35b610381600480360381019061037c91906125a6565b611084565b60405161039093929190612a41565b60405180910390f35b6103b360048036038101906103ae9190612a7f565b611153565b6040516103c091906123e5565b60405180910390f35b6103e360048036038101906103de91906125e6565b6111e7565b005b60007f80ac58cd000000000000000000000000000000000000000000000000000000007bffffffffffffffffffffffffffffffffffffffffffffffffffffffff1916827bffffffffffffffffffffffffffffffffffffffffffffffffffffffff191614806104b057507f5b5e139f000000000000000000000000000000000000000000000000000000007bffffffffffffffffffffffffffffffffffffffffffffffffffffffff1916827bffffffffffffffffffffffffffffffffffffffffffffffffffffffff1916145b806104c057506104bf826112df565b5b9050919050565b6060600080546104d690612aee565b80601f016020809104026020016040519081016040528092919081815260200182805461050290612aee565b801561054f5780601f106105245761010080835404028352916020019161054f565b820191906000526020600020905b81548152906001019060200180831161053257829003601f168201915b5050505050905090565b600061056482611349565b6105a3576040517f08c379a000000000000000000000000000000000000000000000000000000000815260040161059a90612b92565b60405180910390fd5b6004600083815260200190815260200160002060009054906101000a900473ffffffffffffffffffffffffffffffffffffffff169050919050565b60006105e982610b4c565b90508073ffffffffffffffffffffffffffffffffffffffff168373ffffffffffffffffffffffffffffffffffffffff16141561065a576040517f08c379a000000000000000000000000000000000000000000000000000000000815260040161065190612c24565b60405180910390fd5b8073ffffffffffffffffffffffffffffffffffffffff166106796113b5565b73ffffffffffffffffffffffffffffffffffffffff1614806106a857506106a7816106a26113b5565b611153565b5b6106e7576040517f08c379a00000000000000000000000000000000000000000000000000000000081526004016106de90612cb6565b60405180910390fd5b6106f183836113bd565b505050565b6060600860008373ffffffffffffffffffffffffffffffffffffffff1673ffffffffffffffffffffffffffffffffffffffff168152602001908152602001600020805480602002602001604051908101604052809291908181526020016000905b8282101561082f5783829060005260206000209060030201604051806060016040529081600082015481526020016001820154815260200160028201805461079e90612aee565b80601f01602080910402602001604051908101604052809291908181526020018280546107ca90612aee565b80156108175780601f106107ec57610100808354040283529160200191610817565b820191906000526020600020905b8154815290600101906020018083116107fa57829003601f168201915b50505050508152505081526020019060010190610757565b505050509050919050565b61084633600754611476565b600060405180606001604052804281526020016007548152602001610869611494565b6108746007546114d1565b604051602001610885929190612d12565b6040516020818303038152906040528152509050600860003373ffffffffffffffffffffffffffffffffffffffff1673ffffffffffffffffffffffffffffffffffffffff168152602001908152602001600020819080600181540180825580915050600190039060005260206000209060030201600090919091909150600082015181600001556020820151816001015560408201518160020190805190602001906109329291906121c1565b5050506001600760008282546109489190612d65565b9250508190555050565b61096361095d6113b5565b82611632565b6109a2576040517f08c379a000000000000000000000000000000000000000000000000000000000815260040161099990612e2d565b60405180910390fd5b6109ad838383611710565b505050565b6109bc818461196c565b50600060405180606001604052804281526020018381526020016109de611494565b6109e7856114d1565b6040516020016109f8929190612d12565b6040516020818303038152906040528152509050600860008473ffffffffffffffffffffffffffffffffffffffff1673ffffffffffffffffffffffffffffffffffffffff16815260200190815260200160002081908060018154018082558091505060019003906000526020600020906003020160009091909190915060008201518160000155602082015181600101556040820151816002019080519060200190610aa59291906121c1565b505050610ab3848484611ba5565b50505050565b6000610ac482610b4c565b90508073ffffffffffffffffffffffffffffffffffffffff163373ffffffffffffffffffffffffffffffffffffffff1614610b34576040517f08c379a0000000000000000000000000000000000000000000000000000000008152600401610b2b90612ebf565b60405180910390fd5b610b3d82611bc5565b610b47828261196c565b505050565b6000806002600084815260200190815260200160002060009054906101000a900473ffffffffffffffffffffffffffffffffffffffff169050600073ffffffffffffffffffffffffffffffffffffffff168173ffffffffffffffffffffffffffffffffffffffff161415610bf5576040517f08c379a0000000000000000000000000000000000000000000000000000000008152600401610bec90612f51565b60405180910390fd5b80915050919050565b60008073ffffffffffffffffffffffffffffffffffffffff168273ffffffffffffffffffffffffffffffffffffffff161415610c6f576040517f08c379a0000000000000000000000000000000000000000000000000000000008152600401610c6690612fe3565b60405180910390fd5b600360008373ffffffffffffffffffffffffffffffffffffffff1673ffffffffffffffffffffffffffffffffffffffff168152602001908152602001600020549050919050565b610cbe6113b5565b73ffffffffffffffffffffffffffffffffffffffff16610cdc610d3e565b73ffffffffffffffffffffffffffffffffffffffff1614610d32576040517f08c379a0000000000000000000000000000000000000000000000000000000008152600401610d299061304f565b60405180910390fd5b610d3c6000611cd6565b565b6000600660009054906101000a900473ffffffffffffffffffffffffffffffffffffffff16905090565b606060018054610d7790612aee565b80601f0160208091040260200160405190810160405280929190818152602001828054610da390612aee565b8015610df05780601f10610dc557610100808354040283529160200191610df0565b820191906000526020600020905b815481529060010190602001808311610dd357829003601f168201915b5050505050905090565b610e026113b5565b73ffffffffffffffffffffffffffffffffffffffff168273ffffffffffffffffffffffffffffffffffffffff161415610e70576040517f08c379a0000000000000000000000000000000000000000000000000000000008152600401610e67906130bb565b60405180910390fd5b8060056000610e7d6113b5565b73ffffffffffffffffffffffffffffffffffffffff1673ffffffffffffffffffffffffffffffffffffffff16815260200190815260200160002060008473ffffffffffffffffffffffffffffffffffffffff1673ffffffffffffffffffffffffffffffffffffffff16815260200190815260200160002060006101000a81548160ff0219169083151502179055508173ffffffffffffffffffffffffffffffffffffffff16610f2a6113b5565b73ffffffffffffffffffffffffffffffffffffffff167f17307eab39ab6107e8899845ad3d59bd9653f200f220920489ca2b5937696c3183604051610f6f91906123e5565b60405180910390a35050565b610f8c610f866113b5565b83611632565b610fcb576040517f08c379a0000000000000000000000000000000000000000000000000000000008152600401610fc290612e2d565b60405180910390fd5b610fd784848484611d9c565b50505050565b6060610fe882611349565b611027576040517f08c379a000000000000000000000000000000000000000000000000000000000815260040161101e9061314d565b60405180910390fd5b6000611031611494565b90506000815111611051576040518060200160405280600081525061107c565b8061105b846114d1565b60405160200161106c929190612d12565b6040516020818303038152906040525b915050919050565b600860205281600052604060002081815481106110a057600080fd5b9060005260206000209060030201600091509150508060000154908060010154908060020180546110d090612aee565b80601f01602080910402602001604051908101604052809291908181526020018280546110fc90612aee565b80156111495780601f1061111e57610100808354040283529160200191611149565b820191906000526020600020905b81548152906001019060200180831161112c57829003601f168201915b5050505050905083565b6000600560008473ffffffffffffffffffffffffffffffffffffffff1673ffffffffffffffffffffffffffffffffffffffff16815260200190815260200160002060008373ffffffffffffffffffffffffffffffffffffffff1673ffffffffffffffffffffffffffffffffffffffff16815260200190815260200160002060009054906101000a900460ff16905092915050565b6111ef6113b5565b73ffffffffffffffffffffffffffffffffffffffff1661120d610d3e565b73ffffffffffffffffffffffffffffffffffffffff1614611263576040517f08c379a000000000000000000000000000000000000000000000000000000000815260040161125a9061304f565b60405180910390fd5b600073ffffffffffffffffffffffffffffffffffffffff168173ffffffffffffffffffffffffffffffffffffffff1614156112d3576040517f08c379a00000000000000000000000000000000000000000000000000000000081526004016112ca906131df565b60405180910390fd5b6112dc81611cd6565b50565b60007f01ffc9a7000000000000000000000000000000000000000000000000000000007bffffffffffffffffffffffffffffffffffffffffffffffffffffffff1916827bffffffffffffffffffffffffffffffffffffffffffffffffffffffff1916149050919050565b60008073ffffffffffffffffffffffffffffffffffffffff166002600084815260200190815260200160002060009054906101000a900473ffffffffffffffffffffffffffffffffffffffff1673ffffffffffffffffffffffffffffffffffffffff1614159050919050565b600033905090565b816004600083815260200190815260200160002060006101000a81548173ffffffffffffffffffffffffffffffffffffffff021916908373ffffffffffffffffffffffffffffffffffffffff160217905550808273ffffffffffffffffffffffffffffffffffffffff1661143083610b4c565b73ffffffffffffffffffffffffffffffffffffffff167f8c5be1e5ebec7d5bd14f71427d1e84f3dd0314c0f7b2291e5b200ac8c7c3b92560405160405180910390a45050565b611490828260405180602001604052806000815250611df8565b5050565b60606040518060400160405280601481526020017f68747470733a2f2f736f6d656e66742e636f6d2f000000000000000000000000815250905090565b60606000821415611519576040518060400160405280600181526020017f3000000000000000000000000000000000000000000000000000000000000000815250905061162d565b600082905060005b6000821461154b578080611534906131ff565b915050600a826115449190613277565b9150611521565b60008167ffffffffffffffff81111561156757611566612893565b5b6040519080825280601f01601f1916602001820160405280156115995781602001600182028036833780820191505090505b5090505b60008514611626576001826115b291906132a8565b9150600a856115c191906132dc565b60306115cd9190612d65565b60f81b8183815181106115e3576115e261330d565b5b60200101907effffffffffffffffffffffffffffffffffffffffffffffffffffffffffffff1916908160001a905350600a8561161f9190613277565b945061159d565b8093505050505b919050565b600061163d82611349565b61167c576040517f08c379a0000000000000000000000000000000000000000000000000000000008152600401611673906133ae565b60405180910390fd5b600061168783610b4c565b90508073ffffffffffffffffffffffffffffffffffffffff168473ffffffffffffffffffffffffffffffffffffffff1614806116f657508373ffffffffffffffffffffffffffffffffffffffff166116de84610559565b73ffffffffffffffffffffffffffffffffffffffff16145b8061170757506117068185611153565b5b91505092915050565b8273ffffffffffffffffffffffffffffffffffffffff1661173082610b4c565b73ffffffffffffffffffffffffffffffffffffffff1614611786576040517f08c379a000000000000000000000000000000000000000000000000000000000815260040161177d90613440565b60405180910390fd5b600073ffffffffffffffffffffffffffffffffffffffff168273ffffffffffffffffffffffffffffffffffffffff1614156117f6576040517f08c379a00000000000000000000000000000000000000000000000000000000081526004016117ed906134d2565b60405180910390fd5b611801838383611e53565b61180c6000826113bd565b6001600360008573ffffffffffffffffffffffffffffffffffffffff1673ffffffffffffffffffffffffffffffffffffffff168152602001908152602001600020600082825461185c91906132a8565b925050819055506001600360008473ffffffffffffffffffffffffffffffffffffffff1673ffffffffffffffffffffffffffffffffffffffff16815260200190815260200160002060008282546118b39190612d65565b92505081905550816002600083815260200190815260200160002060006101000a81548173ffffffffffffffffffffffffffffffffffffffff021916908373ffffffffffffffffffffffffffffffffffffffff160217905550808273ffffffffffffffffffffffffffffffffffffffff168473ffffffffffffffffffffffffffffffffffffffff167fddf252ad1be2c89b69c2b068fc378daa952ba7f163c4a11628f55a4df523b3ef60405160405180910390a4505050565b600080600860008473ffffffffffffffffffffffffffffffffffffffff1673ffffffffffffffffffffffffffffffffffffffff16815260200190815260200160002090506000808280549050905060005b81811015611ac45760008482815481106119da576119d961330d565b5b90600052602060002090600302016040518060600160405290816000820154815260200160018201548152602001600282018054611a1790612aee565b80601f0160208091040260200160405190810160405280929190818152602001828054611a4390612aee565b8015611a905780601f10611a6557610100808354040283529160200191611a90565b820191906000526020600020905b815481529060010190602001808311611a7357829003601f168201915b50505050508152505090508060200151881415611ab05781935050611ac4565b508080611abc906131ff565b9150506119bd565b508260018480549050611ad791906132a8565b81548110611ae857611ae761330d565b5b9060005260206000209060030201838381548110611b0957611b0861330d565b5b906000526020600020906003020160008201548160000155600182015481600101556002820181600201908054611b3f90612aee565b611b4a929190612247565b5090505082805480611b5f57611b5e6134f2565b5b60019003818190600052602060002090600302016000808201600090556001820160009055600282016000611b9491906122d4565b505090556001935050505092915050565b611bc083838360405180602001604052806000815250610f7b565b505050565b6000611bd082610b4c565b9050611bde81600084611e53565b611be96000836113bd565b6001600360008373ffffffffffffffffffffffffffffffffffffffff1673ffffffffffffffffffffffffffffffffffffffff1681526020019081526020016000206000828254611c3991906132a8565b925050819055506002600083815260200190815260200160002060006101000a81549073ffffffffffffffffffffffffffffffffffffffff021916905581600073ffffffffffffffffffffffffffffffffffffffff168273ffffffffffffffffffffffffffffffffffffffff167fddf252ad1be2c89b69c2b068fc378daa952ba7f163c4a11628f55a4df523b3ef60405160405180910390a45050565b6000600660009054906101000a900473ffffffffffffffffffffffffffffffffffffffff16905081600660006101000a81548173ffffffffffffffffffffffffffffffffffffffff021916908373ffffffffffffffffffffffffffffffffffffffff1602179055508173ffffffffffffffffffffffffffffffffffffffff168173ffffffffffffffffffffffffffffffffffffffff167f8be0079c531659141344cd1fd0a4f28419497f9722a3daafe3b4186f6b6457e060405160405180910390a35050565b611da7848484611710565b611db384848484611e58565b611df2576040517f08c379a0000000000000000000000000000000000000000000000000000000008152600401611de990613593565b60405180910390fd5b50505050565b611e028383611fe0565b611e0f6000848484611e58565b611e4e576040517f08c379a0000000000000000000000000000000000000000000000000000000008152600401611e4590613593565b60405180910390fd5b505050565b505050565b6000611e798473ffffffffffffffffffffffffffffffffffffffff166121ae565b15611fd3578373ffffffffffffffffffffffffffffffffffffffff1663150b7a02611ea26113b5565b8786866040518563ffffffff1660e01b8152600401611ec49493929190613608565b6020604051808303816000875af1925050508015611f0057506040513d601f19601f82011682018060405250810190611efd9190613669565b60015b611f83573d8060008114611f30576040519150601f19603f3d011682016040523d82523d6000602084013e611f35565b606091505b50600081511415611f7b576040517f08c379a0000000000000000000000000000000000000000000000000000000008152600401611f7290613593565b60405180910390fd5b805181602001fd5b63150b7a0260e01b7bffffffffffffffffffffffffffffffffffffffffffffffffffffffff1916817bffffffffffffffffffffffffffffffffffffffffffffffffffffffff191614915050611fd8565b600190505b949350505050565b600073ffffffffffffffffffffffffffffffffffffffff168273ffffffffffffffffffffffffffffffffffffffff161415612050576040517f08c379a0000000000000000000000000000000000000000000000000000000008152600401612047906136e2565b60405180910390fd5b61205981611349565b15612099576040517f08c379a00000000000000000000000000000000000000000000000000000000081526004016120909061374e565b60405180910390fd5b6120a560008383611e53565b6001600360008473ffffffffffffffffffffffffffffffffffffffff1673ffffffffffffffffffffffffffffffffffffffff16815260200190815260200160002060008282546120f59190612d65565b92505081905550816002600083815260200190815260200160002060006101000a81548173ffffffffffffffffffffffffffffffffffffffff021916908373ffffffffffffffffffffffffffffffffffffffff160217905550808273ffffffffffffffffffffffffffffffffffffffff16600073ffffffffffffffffffffffffffffffffffffffff167fddf252ad1be2c89b69c2b068fc378daa952ba7f163c4a11628f55a4df523b3ef60405160405180910390a45050565b600080823b905060008111915050919050565b8280546121cd90612aee565b90600052602060002090601f0160209004810192826121ef5760008555612236565b82601f1061220857805160ff1916838001178555612236565b82800160010185558215612236579182015b8281111561223557825182559160200191906001019061221a565b5b5090506122439190612314565b5090565b82805461225390612aee565b90600052602060002090601f01602090048101928261227557600085556122c3565b82601f1061228657805485556122c3565b828001600101855582156122c357600052602060002091601f016020900482015b828111156122c25782548255916001019190600101906122a7565b5b5090506122d09190612314565b5090565b5080546122e090612aee565b6000825580601f106122f25750612311565b601f0160209004906000526020600020908101906123109190612314565b5b50565b5b8082111561232d576000816000905550600101612315565b5090565b6000604051905090565b600080fd5b600080fd5b60007fffffffff0000000000000000000000000000000000000000000000000000000082169050919050565b61237a81612345565b811461238557600080fd5b50565b60008135905061239781612371565b92915050565b6000602082840312156123b3576123b261233b565b5b60006123c184828501612388565b91505092915050565b60008115159050919050565b6123df816123ca565b82525050565b60006020820190506123fa60008301846123d6565b92915050565b600081519050919050565b600082825260208201905092915050565b60005b8381101561243a57808201518184015260208101905061241f565b83811115612449576000848401525b50505050565b6000601f19601f8301169050919050565b600061246b82612400565b612475818561240b565b935061248581856020860161241c565b61248e8161244f565b840191505092915050565b600060208201905081810360008301526124b38184612460565b905092915050565b6000819050919050565b6124ce816124bb565b81146124d957600080fd5b50565b6000813590506124eb816124c5565b92915050565b6000602082840312156125075761250661233b565b5b6000612515848285016124dc565b91505092915050565b600073ffffffffffffffffffffffffffffffffffffffff82169050919050565b60006125498261251e565b9050919050565b6125598161253e565b82525050565b60006020820190506125746000830184612550565b92915050565b6125838161253e565b811461258e57600080fd5b50565b6000813590506125a08161257a565b92915050565b600080604083850312156125bd576125bc61233b565b5b60006125cb85828601612591565b92505060206125dc858286016124dc565b9150509250929050565b6000602082840312156125fc576125fb61233b565b5b600061260a84828501612591565b91505092915050565b600081519050919050565b600082825260208201905092915050565b6000819050602082019050919050565b612648816124bb565b82525050565b600082825260208201905092915050565b600061266a82612400565b612674818561264e565b935061268481856020860161241c565b61268d8161244f565b840191505092915050565b60006060830160008301516126b0600086018261263f565b5060208301516126c3602086018261263f565b50604083015184820360408601526126db828261265f565b9150508091505092915050565b60006126f48383612698565b905092915050565b6000602082019050919050565b600061271482612613565b61271e818561261e565b9350836020820285016127308561262f565b8060005b8581101561276c578484038952815161274d85826126e8565b9450612758836126fc565b925060208a01995050600181019050612734565b50829750879550505050505092915050565b600060208201905081810360008301526127988184612709565b905092915050565b6000806000606084860312156127b9576127b861233b565b5b60006127c786828701612591565b93505060206127d886828701612591565b92505060406127e9868287016124dc565b9150509250925092565b6127fc816124bb565b82525050565b600060208201905061281760008301846127f3565b92915050565b612826816123ca565b811461283157600080fd5b50565b6000813590506128438161281d565b92915050565b600080604083850312156128605761285f61233b565b5b600061286e85828601612591565b925050602061287f85828601612834565b9150509250929050565b600080fd5b600080fd5b7f4e487b7100000000000000000000000000000000000000000000000000000000600052604160045260246000fd5b6128cb8261244f565b810181811067ffffffffffffffff821117156128ea576128e9612893565b5b80604052505050565b60006128fd612331565b905061290982826128c2565b919050565b600067ffffffffffffffff82111561292957612928612893565b5b6129328261244f565b9050602081019050919050565b82818337600083830152505050565b600061296161295c8461290e565b6128f3565b90508281526020810184848401111561297d5761297c61288e565b5b61298884828561293f565b509392505050565b600082601f8301126129a5576129a4612889565b5b81356129b584826020860161294e565b91505092915050565b600080600080608085870312156129d8576129d761233b565b5b60006129e687828801612591565b94505060206129f787828801612591565b9350506040612a08878288016124dc565b925050606085013567ffffffffffffffff811115612a2957612a28612340565b5b612a3587828801612990565b91505092959194509250565b6000606082019050612a5660008301866127f3565b612a6360208301856127f3565b8181036040830152612a758184612460565b9050949350505050565b60008060408385031215612a9657612a9561233b565b5b6000612aa485828601612591565b9250506020612ab585828601612591565b9150509250929050565b7f4e487b7100000000000000000000000000000000000000000000000000000000600052602260045260246000fd5b60006002820490506001821680612b0657607f821691505b60208210811415612b1a57612b19612abf565b5b50919050565b7f4552433732313a20617070726f76656420717565727920666f72206e6f6e657860008201527f697374656e7420746f6b656e0000000000000000000000000000000000000000602082015250565b6000612b7c602c8361240b565b9150612b8782612b20565b604082019050919050565b60006020820190508181036000830152612bab81612b6f565b9050919050565b7f4552433732313a20617070726f76616c20746f2063757272656e74206f776e6560008201527f7200000000000000000000000000000000000000000000000000000000000000602082015250565b6000612c0e60218361240b565b9150612c1982612bb2565b604082019050919050565b60006020820190508181036000830152612c3d81612c01565b9050919050565b7f4552433732313a20617070726f76652063616c6c6572206973206e6f74206f7760008201527f6e6572206e6f7220617070726f76656420666f7220616c6c0000000000000000602082015250565b6000612ca060388361240b565b9150612cab82612c44565b604082019050919050565b60006020820190508181036000830152612ccf81612c93565b9050919050565b600081905092915050565b6000612cec82612400565b612cf68185612cd6565b9350612d0681856020860161241c565b80840191505092915050565b6000612d1e8285612ce1565b9150612d2a8284612ce1565b91508190509392505050565b7f4e487b7100000000000000000000000000000000000000000000000000000000600052601160045260246000fd5b6000612d70826124bb565b9150612d7b836124bb565b9250827fffffffffffffffffffffffffffffffffffffffffffffffffffffffffffffffff03821115612db057612daf612d36565b5b828201905092915050565b7f4552433732313a207472616e736665722063616c6c6572206973206e6f74206f60008201527f776e6572206e6f7220617070726f766564000000000000000000000000000000602082015250565b6000612e1760318361240b565b9150612e2282612dbb565b604082019050919050565b60006020820190508181036000830152612e4681612e0a565b9050919050565b7f566f6c63616e6f546f6b656e3a20796f75206d757374206f776e20746865207460008201527f6f6b656e20746f206275726e2069742100000000000000000000000000000000602082015250565b6000612ea960308361240b565b9150612eb482612e4d565b604082019050919050565b60006020820190508181036000830152612ed881612e9c565b9050919050565b7f4552433732313a206f776e657220717565727920666f72206e6f6e657869737460008201527f656e7420746f6b656e0000000000000000000000000000000000000000000000602082015250565b6000612f3b60298361240b565b9150612f4682612edf565b604082019050919050565b60006020820190508181036000830152612f6a81612f2e565b9050919050565b7f4552433732313a2062616c616e636520717565727920666f7220746865207a6560008201527f726f206164647265737300000000000000000000000000000000000000000000602082015250565b6000612fcd602a8361240b565b9150612fd882612f71565b604082019050919050565b60006020820190508181036000830152612ffc81612fc0565b9050919050565b7f4f776e61626c653a2063616c6c6572206973206e6f7420746865206f776e6572600082015250565b600061303960208361240b565b915061304482613003565b602082019050919050565b600060208201905081810360008301526130688161302c565b9050919050565b7f4552433732313a20617070726f766520746f2063616c6c657200000000000000600082015250565b60006130a560198361240b565b91506130b08261306f565b602082019050919050565b600060208201905081810360008301526130d481613098565b9050919050565b7f4552433732314d657461646174613a2055524920717565727920666f72206e6f60008201527f6e6578697374656e7420746f6b656e0000000000000000000000000000000000602082015250565b6000613137602f8361240b565b9150613142826130db565b604082019050919050565b600060208201905081810360008301526131668161312a565b9050919050565b7f4f776e61626c653a206e6577206f776e657220697320746865207a65726f206160008201527f6464726573730000000000000000000000000000000000000000000000000000602082015250565b60006131c960268361240b565b91506131d48261316d565b604082019050919050565b600060208201905081810360008301526131f8816131bc565b9050919050565b600061320a826124bb565b91507fffffffffffffffffffffffffffffffffffffffffffffffffffffffffffffffff82141561323d5761323c612d36565b5b600182019050919050565b7f4e487b7100000000000000000000000000000000000000000000000000000000600052601260045260246000fd5b6000613282826124bb565b915061328d836124bb565b92508261329d5761329c613248565b5b828204905092915050565b60006132b3826124bb565b91506132be836124bb565b9250828210156132d1576132d0612d36565b5b828203905092915050565b60006132e7826124bb565b91506132f2836124bb565b92508261330257613301613248565b5b828206905092915050565b7f4e487b7100000000000000000000000000000000000000000000000000000000600052603260045260246000fd5b7f4552433732313a206f70657261746f7220717565727920666f72206e6f6e657860008201527f697374656e7420746f6b656e0000000000000000000000000000000000000000602082015250565b6000613398602c8361240b565b91506133a38261333c565b604082019050919050565b600060208201905081810360008301526133c78161338b565b9050919050565b7f4552433732313a207472616e73666572206f6620746f6b656e2074686174206960008201527f73206e6f74206f776e0000000000000000000000000000000000000000000000602082015250565b600061342a60298361240b565b9150613435826133ce565b604082019050919050565b600060208201905081810360008301526134598161341d565b9050919050565b7f4552433732313a207472616e7366657220746f20746865207a65726f2061646460008201527f7265737300000000000000000000000000000000000000000000000000000000602082015250565b60006134bc60248361240b565b91506134c782613460565b604082019050919050565b600060208201905081810360008301526134eb816134af565b9050919050565b7f4e487b7100000000000000000000000000000000000000000000000000000000600052603160045260246000fd5b7f4552433732313a207472616e7366657220746f206e6f6e20455243373231526560008201527f63656976657220696d706c656d656e7465720000000000000000000000000000602082015250565b600061357d60328361240b565b915061358882613521565b604082019050919050565b600060208201905081810360008301526135ac81613570565b9050919050565b600081519050919050565b600082825260208201905092915050565b60006135da826135b3565b6135e481856135be565b93506135f481856020860161241c565b6135fd8161244f565b840191505092915050565b600060808201905061361d6000830187612550565b61362a6020830186612550565b61363760408301856127f3565b818103606083015261364981846135cf565b905095945050505050565b60008151905061366381612371565b92915050565b60006020828403121561367f5761367e61233b565b5b600061368d84828501613654565b91505092915050565b7f4552433732313a206d696e7420746f20746865207a65726f2061646472657373600082015250565b60006136cc60208361240b565b91506136d782613696565b602082019050919050565b600060208201905081810360008301526136fb816136bf565b9050919050565b7f4552433732313a20746f6b656e20616c7265616479206d696e74656400000000600082015250565b6000613738601c8361240b565b915061374382613702565b602082019050919050565b600060208201905081810360008301526137678161372b565b905091905056fea26469706673582212201e530566c1a2a3ceb1cf774e4a8ef58c7e3ebe482566a528c9449b568664441364736f6c634300080a0033",
  "linkReferences": {},
  "deployedLinkReferences": {}
}